{
  "contractName": "Todo",
  "abi": [
    {
      "constant": false,
      "inputs": [
        {
          "name": "_content",
          "type": "string"
        }
      ],
      "name": "createTask",
      "outputs": [],
      "payable": false,
      "stateMutability": "nonpayable",
      "type": "function"
    }
  ],
  "bytecode": "0x60806040526000805534801561001457600080fd5b5061024e806100246000396000f3fe608060405234801561001057600080fd5b506004361061002b5760003560e01c8063111002aa14610030575b600080fd5b6100e96004803603602081101561004657600080fd5b810190808035906020019064010000000081111561006357600080fd5b82018360208201111561007557600080fd5b8035906020019184600183028401116401000000008311171561009757600080fd5b91908080601f016020809104026020016040519081016040528093929190818152602001838380828437600081840152601f19601f8201169050808301925050505050505091929192905050506100eb565b005b60008081548092919060010191905055506040518060600160405280600054815260200182815260200160001515815250600160008054815260200190815260200160002060008201518160000155602082015181600101908051906020019061015692919061017d565b5060408201518160020160006101000a81548160ff02191690831515021790555090505050565b828054600181600116156101000203166002900490600052602060002090601f016020900481019282601f106101be57805160ff19168380011785556101ec565b828001600101855582156101ec579182015b828111156101eb5782518255916020019190600101906101d0565b5b5090506101f991906101fd565b5090565b61021f91905b8082111561021b576000816000905550600101610203565b5090565b9056fea165627a7a723058201625f82544f87e0c98e28fa1abe9e7465579787aa3fdfeac3e0081b97bd607900029",
  "source": "pragma solidity >=0.4.21 <0.6.0;\n\ncontract Todo{\n    uint taskcount  = 0;\n   \n    struct Task{\n        uint taskcount;\n        string content;\n        bool completed;\n    }\n    \n   mapping(uint => Task) list;\n   \n   function createTask(string memory _content) public {\n      //increase task _content\n      taskcount++;\n      \n      \n      \n      //get task from struct and put in in the taks array relative to the task count indexed\n      list[taskcount] = Task(taskcount,_content,false);\n   }\n\n}\n",
  "sourcePath": "/Users/leefaria/Documents/Code/todoapp/toddodapp/contracts/todo.sol",
  "compiler": {
    "name": "solc",
    "version": "0.5.8+commit.23d335f2.Emscripten.clang"
  },
  "schemaVersion": "3.0.11",
  "updatedAt": "2019-09-09T03:03:14.687Z",
  "devdoc": {
    "methods": {}
  },
  "userdoc": {
    "methods": {}
  }
}