{
  "contractName": "Todo",
  "abi": [
    {
      "constant": true,
      "inputs": [],
      "name": "taskCount",
      "outputs": [
        {
          "name": "",
          "type": "uint256"
        }
      ],
      "payable": false,
      "stateMutability": "view",
      "type": "function"
    },
    {
      "constant": true,
      "inputs": [],
      "name": "test",
      "outputs": [
        {
          "name": "",
          "type": "string"
        }
      ],
      "payable": false,
      "stateMutability": "view",
      "type": "function"
    },
    {
      "constant": false,
      "inputs": [
        {
          "name": "_content",
          "type": "string"
        }
      ],
      "name": "createTask",
      "outputs": [],
      "payable": false,
      "stateMutability": "nonpayable",
      "type": "function"
    }
  ],
  "bytecode": "0x6080604052600080556040805190810160405280600481526020017f746573740000000000000000000000000000000000000000000000000000000081525060019080519060200190610053929190610066565b5034801561006057600080fd5b5061010b565b828054600181600116156101000203166002900490600052602060002090601f016020900481019282601f106100a757805160ff19168380011785556100d5565b828001600101855582156100d5579182015b828111156100d45782518255916020019190600101906100b9565b5b5090506100e291906100e6565b5090565b61010891905b808211156101045760008160009055506001016100ec565b5090565b90565b6103e18061011a6000396000f3fe608060405260043610610051576000357c010000000000000000000000000000000000000000000000000000000090048063111002aa14610056578063b6cb58a51461011e578063f8a8fd6d14610149575b600080fd5b34801561006257600080fd5b5061011c6004803603602081101561007957600080fd5b810190808035906020019064010000000081111561009657600080fd5b8201836020820111156100a857600080fd5b803590602001918460018302840111640100000000831117156100ca57600080fd5b91908080601f016020809104026020016040519081016040528093929190818152602001838380828437600081840152601f19601f8201169050808301925050505050505091929192905050506101d9565b005b34801561012a57600080fd5b5061013361026c565b6040518082815260200191505060405180910390f35b34801561015557600080fd5b5061015e610272565b6040518080602001828103825283818151815260200191508051906020019080838360005b8381101561019e578082015181840152602081019050610183565b50505050905090810190601f1680156101cb5780820380516001836020036101000a031916815260200191505b509250505060405180910390f35b60008081548092919060010191905055506060604051908101604052806000548152602001828152602001600015158152506002600080548152602001908152602001600020600082015181600001556020820151816001019080519060200190610245929190610310565b5060408201518160020160006101000a81548160ff02191690831515021790555090505050565b60005481565b60018054600181600116156101000203166002900480601f0160208091040260200160405190810160405280929190818152602001828054600181600116156101000203166002900480156103085780601f106102dd57610100808354040283529160200191610308565b820191906000526020600020905b8154815290600101906020018083116102eb57829003601f168201915b505050505081565b828054600181600116156101000203166002900490600052602060002090601f016020900481019282601f1061035157805160ff191683800117855561037f565b8280016001018555821561037f579182015b8281111561037e578251825591602001919060010190610363565b5b50905061038c9190610390565b5090565b6103b291905b808211156103ae576000816000905550600101610396565b5090565b9056fea165627a7a72305820f6bbfff81984f85a97bf4534cc388e27c2ecd353e309fa6b7005c44656f5ba850029",
  "source": "pragma solidity >=0.4.21 <0.6.0;\n\ncontract Todo{\n    uint public taskCount  = 0 ;\n    string public test = \"test\";\n   \n    struct Task{\n        uint id;\n        string content;\n        bool completed;\n    }\n    \n   mapping(uint => Task) list;\n\n   \n   \n   function createTask(string memory _content) public {\n      //increase task _content\n      taskCount++;\n      \n      //get task from struct and put in in the ta array relative to the task count indexed\n      list[taskCount] = Task(taskCount,_content,false);\n   }\n\n\n}\n",
  "sourcePath": "/Users/leefaria/Documents/Code/todoapp/toddodapp/contracts/todo.sol",
  "compiler": {
    "name": "solc",
    "version": "0.5.1+commit.c8a2cb62.Linux.g++"
  },
  "schemaVersion": "3.0.11",
  "updatedAt": "2019-09-13T19:57:28.729Z",
  "devdoc": {
    "methods": {}
  },
  "userdoc": {
    "methods": {}
  }
}